{
  "_format": "hh-sol-artifact-1",
  "contractName": "FrameworkRegistry",
  "sourceName": "contracts/FrameworkRegistry.sol",
  "abi": [
    {
      "anonymous": false,
      "inputs": [
        {
          "indexed": true,
          "internalType": "address",
          "name": "registrant",
          "type": "address"
        },
        {
          "indexed": false,
          "internalType": "string",
          "name": "name",
          "type": "string"
        },
        {
          "indexed": false,
          "internalType": "string",
          "name": "version",
          "type": "string"
        },
        {
          "indexed": false,
          "internalType": "string",
          "name": "repoUrl",
          "type": "string"
        }
      ],
      "name": "FrameworkRegistered",
      "type": "event"
    },
    {
      "anonymous": false,
      "inputs": [
        {
          "indexed": true,
          "internalType": "string",
          "name": "projectKey",
          "type": "string"
        },
        {
          "indexed": false,
          "internalType": "string",
          "name": "fileHash",
          "type": "string"
        },
        {
          "indexed": true,
          "internalType": "address",
          "name": "updater",
          "type": "address"
        }
      ],
      "name": "SyncHashUpdated",
      "type": "event"
    },
    {
      "inputs": [
        {
          "internalType": "address",
          "name": "registrant",
          "type": "address"
        }
      ],
      "name": "getFramework",
      "outputs": [
        {
          "components": [
            {
              "internalType": "string",
              "name": "name",
              "type": "string"
            },
            {
              "internalType": "string",
              "name": "version",
              "type": "string"
            },
            {
              "internalType": "string",
              "name": "repoUrl",
              "type": "string"
            },
            {
              "internalType": "address",
              "name": "registrant",
              "type": "address"
            },
            {
              "internalType": "uint256",
              "name": "registeredAt",
              "type": "uint256"
            }
          ],
          "internalType": "struct FrameworkRegistry.FrameworkEntry",
          "name": "",
          "type": "tuple"
        }
      ],
      "stateMutability": "view",
      "type": "function"
    },
    {
      "inputs": [
        {
          "internalType": "uint256",
          "name": "index",
          "type": "uint256"
        }
      ],
      "name": "getRegistrantAt",
      "outputs": [
        {
          "internalType": "address",
          "name": "",
          "type": "address"
        }
      ],
      "stateMutability": "view",
      "type": "function"
    },
    {
      "inputs": [],
      "name": "getRegistrantCount",
      "outputs": [
        {
          "internalType": "uint256",
          "name": "",
          "type": "uint256"
        }
      ],
      "stateMutability": "view",
      "type": "function"
    },
    {
      "inputs": [
        {
          "internalType": "string",
          "name": "projectKey",
          "type": "string"
        }
      ],
      "name": "getSyncHash",
      "outputs": [
        {
          "internalType": "string",
          "name": "",
          "type": "string"
        }
      ],
      "stateMutability": "view",
      "type": "function"
    },
    {
      "inputs": [
        {
          "internalType": "string",
          "name": "name",
          "type": "string"
        },
        {
          "internalType": "string",
          "name": "version",
          "type": "string"
        },
        {
          "internalType": "string",
          "name": "repoUrl",
          "type": "string"
        }
      ],
      "name": "registerFramework",
      "outputs": [],
      "stateMutability": "nonpayable",
      "type": "function"
    },
    {
      "inputs": [
        {
          "internalType": "string",
          "name": "projectKey",
          "type": "string"
        },
        {
          "internalType": "string",
          "name": "fileHash",
          "type": "string"
        }
      ],
      "name": "setSyncHash",
      "outputs": [],
      "stateMutability": "nonpayable",
      "type": "function"
    }
  ],
  "bytecode": "0x608060405234801561000f575f80fd5b50610d6f8061001d5f395ff3fe608060405234801561000f575f80fd5b5060043610610060575f3560e01c8063317e220a146100645780633270c7d31461008d5780637eb0eec5146100ad578063845f6383146100c257806385024fc6146100ed5780639568d29c14610100575b5f80fd5b6100776100723660046107e2565b610111565b6040516100849190610852565b60405180910390f35b6100a061009b366004610917565b61033f565b6040516100849190610956565b6100c06100bb366004610968565b6103f0565b005b6100d56100d03660046109fb565b61065f565b6040516001600160a01b039091168152602001610084565b6100c06100fb366004610a12565b6106d5565b600254604051908152602001610084565b61014a6040518060a001604052806060815260200160608152602001606081526020015f6001600160a01b031681526020015f81525090565b6001600160a01b0382165f9081526020819052604090819020815160a0810190925280548290829061017b90610a79565b80601f01602080910402602001604051908101604052809291908181526020018280546101a790610a79565b80156101f25780601f106101c9576101008083540402835291602001916101f2565b820191905f5260205f20905b8154815290600101906020018083116101d557829003601f168201915b5050505050815260200160018201805461020b90610a79565b80601f016020809104026020016040519081016040528092919081815260200182805461023790610a79565b80156102825780601f1061025957610100808354040283529160200191610282565b820191905f5260205f20905b81548152906001019060200180831161026557829003601f168201915b5050505050815260200160028201805461029b90610a79565b80601f01602080910402602001604051908101604052809291908181526020018280546102c790610a79565b80156103125780601f106102e957610100808354040283529160200191610312565b820191905f5260205f20905b8154815290600101906020018083116102f557829003601f168201915b505050918352505060038201546001600160a01b0316602082015260049091015460409091015292915050565b606060018383604051610353929190610ab1565b9081526020016040518091039020805461036c90610a79565b80601f016020809104026020016040519081016040528092919081815260200182805461039890610a79565b80156103e35780601f106103ba576101008083540402835291602001916103e3565b820191905f5260205f20905b8154815290600101906020018083116103c657829003601f168201915b5050505050905092915050565b846104325760405162461bcd60e51b815260206004820152600d60248201526c1b985b59481c995c5d5a5c9959609a1b60448201526064015b60405180910390fd5b826104725760405162461bcd60e51b815260206004820152601060248201526f1d995c9cda5bdb881c995c5d5a5c995960821b6044820152606401610429565b335f908152602081905260408120805461048b90610a79565b6040805160c06020601f8c01819004028201810190925260a081018a81529215945092508291908a908a90819085018382808284375f92019190915250505090825250604080516020601f8901819004810282018101909252878152918101919088908890819084018382808284375f92019190915250505090825250604080516020601f8701819004810282018101909252858152918101919086908690819084018382808284375f9201829052509385525050336020808501829052426040958601529083528290525020815181906105669082610b20565b506020820151600182019061057b9082610b20565b50604082015160028201906105909082610b20565b5060608201516003820180546001600160a01b0319166001600160a01b03909216919091179055608090910151600490910155801561060b57600280546001810182555f919091527f405787fa12a823e0f2b7631cc41b3ba8828b3321ca811111fa75cd3aa3bb5ace0180546001600160a01b031916331790555b336001600160a01b03167f20d9848de2ad28250064f3e8c41ea952ece826130168ab1234e49fb4083ab06288888888888860405161064e96959493929190610c08565b60405180910390a250505050505050565b6002545f9082106106a85760405162461bcd60e51b8152602060048201526013602482015272696e646578206f7574206f6620626f756e647360681b6044820152606401610429565b600282815481106106bb576106bb610c50565b5f918252602090912001546001600160a01b031692915050565b826107185760405162461bcd60e51b81526020600482015260136024820152721c1c9bda9958dd12d95e481c995c5d5a5c9959606a1b6044820152606401610429565b806107595760405162461bcd60e51b8152602060048201526011602482015270199a5b1952185cda081c995c5d5a5c9959607a1b6044820152606401610429565b81816001868660405161076d929190610ab1565b90815260200160405180910390209182610788929190610c64565b50604051339061079b9086908690610ab1565b60405180910390207f28a79b818dc90e179d1ddd0d54ab5781e2901c5e71cca08acd4f7935ca94189484846040516107d4929190610d1e565b60405180910390a350505050565b5f602082840312156107f2575f80fd5b81356001600160a01b0381168114610808575f80fd5b9392505050565b5f81518084525f5b8181101561083357602081850181015186830182015201610817565b505f602082860101526020601f19601f83011685010191505092915050565b602081525f825160a0602084015261086d60c084018261080f565b90506020840151601f198085840301604086015261088b838361080f565b92506040860151915080858403016060860152506108a9828261080f565b91505060018060a01b036060850151166080840152608084015160a08401528091505092915050565b5f8083601f8401126108e2575f80fd5b50813567ffffffffffffffff8111156108f9575f80fd5b602083019150836020828501011115610910575f80fd5b9250929050565b5f8060208385031215610928575f80fd5b823567ffffffffffffffff81111561093e575f80fd5b61094a858286016108d2565b90969095509350505050565b602081525f610808602083018461080f565b5f805f805f806060878903121561097d575f80fd5b863567ffffffffffffffff80821115610994575f80fd5b6109a08a838b016108d2565b909850965060208901359150808211156109b8575f80fd5b6109c48a838b016108d2565b909650945060408901359150808211156109dc575f80fd5b506109e989828a016108d2565b979a9699509497509295939492505050565b5f60208284031215610a0b575f80fd5b5035919050565b5f805f8060408587031215610a25575f80fd5b843567ffffffffffffffff80821115610a3c575f80fd5b610a48888389016108d2565b90965094506020870135915080821115610a60575f80fd5b50610a6d878288016108d2565b95989497509550505050565b600181811c90821680610a8d57607f821691505b602082108103610aab57634e487b7160e01b5f52602260045260245ffd5b50919050565b818382375f9101908152919050565b634e487b7160e01b5f52604160045260245ffd5b601f821115610b1b57805f5260205f20601f840160051c81016020851015610af95750805b601f840160051c820191505b81811015610b18575f8155600101610b05565b50505b505050565b815167ffffffffffffffff811115610b3a57610b3a610ac0565b610b4e81610b488454610a79565b84610ad4565b602080601f831160018114610b81575f8415610b6a5750858301515b5f19600386901b1c1916600185901b178555610bd8565b5f85815260208120601f198616915b82811015610baf57888601518255948401946001909101908401610b90565b5085821015610bcc57878501515f19600388901b60f8161c191681555b505060018460011b0185555b505050505050565b81835281816020850137505f828201602090810191909152601f909101601f19169091010190565b606081525f610c1b60608301888a610be0565b8281036020840152610c2e818789610be0565b90508281036040840152610c43818587610be0565b9998505050505050505050565b634e487b7160e01b5f52603260045260245ffd5b67ffffffffffffffff831115610c7c57610c7c610ac0565b610c9083610c8a8354610a79565b83610ad4565b5f601f841160018114610cc1575f8515610caa5750838201355b5f19600387901b1c1916600186901b178355610b18565b5f83815260208120601f198716915b82811015610cf05786850135825560209485019460019092019101610cd0565b5086821015610d0c575f1960f88860031b161c19848701351681555b505060018560011b0183555050505050565b602081525f610d31602083018486610be0565b94935050505056fea264697066735822122013dbe2cb5fbbbc1eebd9ca4aa37c5090f6f239946efe2c45be0034d467503b6c64736f6c63430008180033",
  "linkReferences": {},
  "deployedLinkReferences": {}
}